:020000040800F2
:1000000000080020F53C0008C90C0008CB0C0008D3
:1000100000000000000000000000000000000000E0
:10002000000000000000000000000000CD0C0008EF
:100030000000000000000000CF0C0008D10C0008F8
:10004000753D0008753D0008753D0008753D0008C8
:10005000753D0008753D0008753D0008753D0008B8
:1000600000000000753D0008753D0008753D000862
:10007000753D0008753D000800000000753D000852
:100080000000000000000000000000000000000070
:10009000753D00080000000000000000D90C0008B9
:1000A00000000000753D0008000000000000000096
:1000B000753D0008753D00080000000000000000CC
:1000C00010B5064C2378002B07D1054B002B02D02E
:1000D000044800E000BF0123237010BD1800002079
:1000E00000000000E43D0008044B10B5002B03D0D5
:1000F0000349044800E000BF10BDC04600000000F6
:100100001C000020E43D000802B471464908490083
:10011000095649008E4402BC7047C04602B471467D
:1001200049084900095C49008E4402BC7047C0463A
:10013000002243088B4274D303098B425FD3030A26
:100140008B4244D3030B8B4228D3030C8B420DD339
:10015000FF22090212BA030C8B4202D312120902C7
:1001600065D0030B8B4219D300E0090AC30B8B4205
:1001700001D3CB03C01A5241830B8B4201D38B03B3
:10018000C01A5241430B8B4201D34B03C01A524158
:10019000030B8B4201D30B03C01A5241C30A8B429B
:1001A00001D3CB02C01A5241830A8B4201D38B0286
:1001B000C01A5241430A8B4201D34B02C01A52412A
:1001C000030A8B4201D30B02C01A5241CDD2C3099C
:1001D0008B4201D3CB01C01A524183098B4201D318
:1001E0008B01C01A524143098B4201D34B01C01A03
:1001F000524103098B4201D30B01C01A5241C3087B
:100200008B4201D3CB00C01A524183088B4201D3E9
:100210008B00C01A524143088B4201D34B00C01AD5
:100220005241411A00D20146524110467047FFE741
:1002300001B5002000F006F802BDC0460029F7D045
:1002400076E770477047C046002B11D1002A0FD1C6
:10025000002900D1002802D00021C943081C07B49E
:10026000024802A14018029003BDC046D9FFFFFF1B
:1002700003B4684601B5029800F006F8019B9E465B
:1002800002B00CBC7047C046F0B557464E464546D6
:10029000DE46E0B504000D009246994683B08B42DD
:1002A00030D82DD04946504600F0BAF82900060053
:1002B000200000F0B5F8331A9846203B9B4633D413
:1002C0005A465346934042461F00534693401E00F1
:1002D000AF423AD8AF4200D178E05B46A41BBD41A3
:1002E000002B00DA75E00022002300920193012325
:1002F0005A4693400193012342469340009328E0DD
:100300008242CFD900220023009201930C9B002B44
:1003100001D01C605D600098019903B03CBC904620
:100320009946A246AB46F0BD424620239B1A524650
:10033000DA40414613004A468A40170042461F43AE
:10034000534693401E00AF42C4D9002200230092BE
:1003500001934346002BD9D0FB0772081A43464647
:100360007B080EE0AB4201D1A2420CD8A41A9D41F9
:10037000012024196D410021013E24184D41002E19
:1003800006D0AB42EED9013E24196D41002EF8D1C2
:10039000009801995B4600196941002B24DB2B0072
:1003A0005A464446D3402A00E2401C005B461500F2
:1003B000002B2ADB26009E40330026004746BE4025
:1003C0003200801A9941009001919FE7A342BCD866
:1003D00083E74246202300219B1A002200910192CC
:1003E0000122DA40019286E7424620239B1A2A0026
:1003F00046469A402300F340444613432A00E24015
:100400001C005B461500002BD4DA42462F00202347
:10041000260097409B1ADE403B003343CDE7C046A1
:1004200010B5002903D100F007F8203002E0081CC5
:1004300000F002F810BDC0461C2101231B049842A5
:1004400001D3000C10391B0A984201D3000A083965
:100450001B09984201D30009043902A2105C40181C
:100460007047C046040302020101010100000000C0
:1004700000000000F0B585B000F028F95B4C0221C7
:100480005B4A200003F01AFAFA20800001F0E6FD32
:1004900062B6002302AE0393337001F0D9FD554DCF
:1004A0002B68984206D300F063F901F0D1FDF530D6
:1004B000FF30286001F0CCFD4F4D2B68984207D3E8
:1004C00000F070F901F0C4FDFA239B00C018286009
:1004D0004A4801F02BFD00F0CDFA30700328DCD93A
:1004E000310003A800F0B8FA0025039B02215B5DF0
:1004F0002000434A013503F0E1F9052DF5D100272D
:100500006B460B225F720A236A446B441770317882
:100510001F700092092203986A4403F0CAFB394D08
:10052000B84259D002212000374A03F0C7F96B4680
:10053000587A013803284CD8FFF7F0FD021D2A3BFA
:100540000023324A2B700221200003F0B7F92B78E8
:10055000082B44D90A232B70284F380001F0E6FC01
:100560002028F9D138002A78294B2A4900F080FF49
:10057000002836D0FEE702272648077047708770AC
:10058000011D033000F02EF90523234A2B70DAE712
:10059000032302271F48037001338370421D831D0C
:1005A0004770011D033000F02DF907231B4A2B7003
:1005B000C9E704230227174803708370421D831D77
:1005C0004770011D033000F035F90723144A2B70E2
:1005D000B9E7144A2F70B6E7134A2870B3E7002B27
:1005E000BAD100F04DFA00F051FA56E70C3E00087F
:1005F000FF3D00083C00002038000020AC00002037
:10060000113E000834000020183E0008203E00087B
:10061000FFFF000000000020223E0008243E0008EA
:10062000263E0008283E00082A3E000810B598B073
:10063000202200210CA803F0CCFB142200216846E4
:1006400003F0C7FB1822002105A803F0C2FB1D49D7
:100650001D4A0B6801241A4080231B0113430B60C1
:1006600002230B931493002315938023DB0216932C
:1006700080231022DB030BA80E940F92179301F036
:100680003FFD002800D0FEE70F2302900093039067
:100690000C3B049021006846019301F07DFF002887
:1006A00000D0FEE70A230593063B0793802305A8A5
:1006B0005B01099302F04EF8002800D0FEE718B065
:1006C00010BDC04600700040FFE7FFFF10B501F00D
:1006D0009FFCFFF7ABFF00F0C5F800F069FB00F0EE
:1006E00037FA00F091FA00F0F5F800F011FC012360
:1006F000064C2268200011680B43136002F09EFA3A
:100700000021200002F0C8FA10BDC046F800002009
:10071000FEE70000F0B5022500260400134F85B067
:100720002A00019102A8390003F04AFB02AB5B19D1
:100730002A00390003A81E7003F042FB02AB02A995
:10074000012290209E7100F0BAFC2A0003A990209B
:1007500000F0D2FC02AB1B79237002AB5A7905235F
:10076000D2095343019A137005B0F0BDFC3D000857
:1007700010B507490748FFF7CDFF012000F086FBC1
:10078000054B1860054800F081FB054B186010BD53
:1007900049000020480000204400002000020024FE
:1007A000400000201FB5094A094B12681B780292CD
:1007B000084A022112685BB20192074A0748127880
:1007C0000092074A03F07AF805B000BD400000200F
:1007D000480000204400002049000020463E000858
:1007E0002D3E0008002807D0002905D0034B1B78B8
:1007F0000370034B1B780B707047C0464800002005
:100800004900002030B5002811D000290FD0002A5F
:100810000DD0002B0BD0064C25681D7023681B0AD9
:10082000137023681B0C0B7023681B0E037030BD04
:100830004400002030B5002811D000290FD0002A34
:100840000DD0002B0BD0064C25681D7023681B0AA9
:10085000137023681B0C0B7023681B0E037030BDD4
:100860004000002030B5012489B01422002103A8E3
:1008700003F0AFFA0221154BDA6A2243DA62DA6A30
:1008800022400192019ADA6A0A43DA62DB6A0B407B
:100890000293029BBFF34F8F0D4D002228000631BB
:1008A00002F0C2F8082304940024280003A903934B
:1008B0000594069402F00AF84023280003A9039344
:1008C0000494059402F002F809B030BD0010024013
:1008D0000004005010B51D4B1D4C23601D4B200023
:1008E00063603223A360313BE360002323616361D3
:1008F000A361E361236200F065FD002801D0FFF7EA
:1009000007FF0021200001F015FB002801D0FFF7B0
:10091000FFFE0021200001F033FB002801D0FFF78B
:10092000F7FE200001F002FB2028FAD10A49042238
:10093000200000F045FE011E00D0FEE70200172057
:1009400002F0A2F8172002F0C9F810BD00540040D0
:10095000AC000020BB7C70004B00002030B50400D0
:1009600087B01422002101A803F033FA184B226843
:100970009A422BD10124174DEB6A2343EB62EB6AB9
:1009800023400093009BBFF34F8F8021A0202200C3
:100990008900C00502F048F88021A0202200C9008B
:1009A000C00502F041F8C023DB000193A020122310
:1009B00001A90293C0050F3B04930394059401F031
:1009C00085FF8023AA6B9B031343AB6307B030BD45
:1009D000005400400010024013B505246846220070
:1009E000034903F0EDF92100684600F069F913BDF1
:1009F0004B3E000813B5052468462200134903F056
:100A0000DFF92100684600F05BF90422104B1A70F0
:100A1000104B033A1B6899690A439A610822DA610C
:100A20009218DA611032DA61E032DA610132FF32B3
:100A3000DA618022D200DA6180221201DA6180223A
:100A40005201DA6180229201DA6113BD503E000842
:100A50004A000020AC000020002806D0002904D065
:100A6000024B0360024B1B780B7070474B00002059
:100A70004A000020014B1878C0B270474A0000209D
:100A80000022014B1A7070474A00002001221148D1
:100A900010B5036899690A439A610822DA619218CD
:100AA000DA611032DA61E032DA610132FF32DA61A2
:100AB0008022D200DA6180221201DA6180225201A2
:100AC000DA6180229201DA610349042200F078FDA4
:100AD00010BDC046AC0000204B00002080230268FF
:100AE000DB059A4206D10123034A916B0B439363C2
:100AF000BFF34F8F7047C0460010024010B504008E
:100B000086B01422002101A803F063F98023226833
:100B1000DB059A4217D101200C4AD16A0143D16208
:100B2000D36A01A903400093009B202301931E3B3D
:100B300002930023A020039303330493C0050233E0
:100B4000059301F0C3FE06B010BDC0460010024080
:100B500010B58AB01022002102A803F03AF9082249
:100B60000021684603F035F91022002106A803F0A1
:100B700030F98023234CDB050A2223600023200068
:100B80006360A360E2602361636102F03CF80028C7
:100B900001D0FFF7BDFD802320005B0102A9029375
:100BA00002F0E8F8002801D0FFF7B2FD200002F0C3
:100BB00058F8002801D0FFF7ABFD0023694620005C
:100BC0000093019302F076F9002801D0FFF7A0FD11
:100BD00030230022069320002B3B06A9079308929E
:100BE000099202F06BF8002801D0FFF791FD08236D
:100BF0002268200091690B439361FFF77FFF0AB0E1
:100C000010BDC046F80000200B480C4B10B5036027
:100C1000E1235B020C224360002342618360C360D6
:100C200003618361C3610362436202F0BBFB00287E
:100C300001D0FFF76DFD10BD3401002000440040DD
:100C400010B5040086B01422002101A803F0C1F8F9
:100C5000124B22689A421ED18022114B9202996B4C
:100C60000A4301219A63DA6A0A43DA62DB6A0B40BB
:100C70000093009BBFF34F8F0A4BA02001930223E8
:100C800002930023039303330493C0055B1801A967
:100C9000059301F01BFE06B010BDC04600440040A5
:100CA000001002400480000010B58AB2024B01001F
:100CB000024802F0D9FA10BDFFFFFF013401002005
:100CC00010B5FFF7F1FF10BD7047FEE770477047A2
:100CD00010B501F0B1F910BD10B5164C2368200015
:100CE0009A69E023DB001A4221D001F0DFF80122EB
:100CF000236899690A439A610822DA619218DA61D5
:100D00001032DA61E032DA610132FF32DA618022D8
:100D1000D200DA6180221201DA6180225201DA61A6
:100D200080229201DA61172001F0FCFE10BD00F074
:100D300075FCF8E7AC0000200122054B596B0A4313
:100D40005A638022996B52050A439A637047C046E2
:100D5000001002408022104B520019680A431A60AA
:100D6000DA680E490A40DA601A680D490A40012122
:100D70001A609A688A439A601A680A490A401A6097
:100D8000DA6809490A40DA6000221A618022074BBA
:100D900012059A607047C046001002400C40FF8860
:100DA000F6FFF6FEFFFFFBFFFFFF02FF00ED00E096
:100DB000072210B5154C0023A263C222FF326262E3
:100DC00022002C321370124A2000226090229203DB
:100DD00062600122238422610332E363A3622363FE
:100DE0006363A360E3606261A361E36102F05AFBA5
:100DF000002801D0FFF78CFC0021200002F00EFD3E
:100E0000002801D0FFF784FC10BDC046B4010020CB
:100E10000024014070B5040088B01422002103A80A
:100E200002F0D7FF164B22689A4226D18022154B3A
:100E30009200596B02240A435A630122A020032620
:100E40000025D96AC0051143D962D96A11400191C0
:100E50000199D96A2143D962DB6A03A9234002932D
:100E6000029B03920496059501F030FD064803A904
:100E700003940496059501F029FD08B070BDC046A5
:100E8000002401400010024000040050802313B5EC
:100E9000094C5B01694600902000019302F06AFC56
:100EA000200002F0D9FB01212000494202F000FCA1
:100EB000200002F05BFC16BDB401002010B510212B
:100EC000034801F0ABFD013843425841C0B210BDA8
:100ED0000004005010B52021034801F09FFD0138A7
:100EE00043425841C0B210BD0004005010B501F09B
:100EF0000BFC06490524FFF71BF944432300013C82
:100F0000002B00D110BDC046C046F7E740420F009D
:100F100030B5144C87B01422002101A802F059FF0B
:100F200020000122102101F07FFD0122200020215C
:100F300001F07AFD3023012501931F3B200002932D
:100F400001A90E3B0493039501F0C0FC2A00200088
:100F5000202101F069FD2A001021200001F064FD2C
:100F600007B030BD0004005010B5134C2378002B9F
:100F700011D001222021114801F056FDFFF7B6FFE4
:100F8000012210210D4801F04FFDFFF797FF0028C7
:100F9000FBD0FFF7ABFFFFF79DFF002220210748A2
:100FA00001F042FDFFF7A2FF00221021034801F0EB
:100FB0003BFD0123237010BD690000200004005098
:100FC000002220210E4810B501F02EFDFFF78EFF04
:100FD000012210210A4801F027FDFFF76FFF0028CA
:100FE000FBD0FFF783FF01222021054801F01CFD03
:100FF000FFF77CFFFFF76EFF0022024B1A7010BD57
:10100000000400506900002010B50122041E00D128
:10101000020020210C4801F007FDFFF767FF0122C5
:101020001021094801F000FDFFF760FFFFF746FFC0
:101030000028FBD0002C01D0FFF74CFF002210212C
:10104000014801F0F1FC10BD0004005001222021F4
:101050000D4810B501F0E8FCFFF748FF0122102110
:10106000094801F0E1FCFFF729FF0028FBD0FFF75A
:101070003DFFFFF72FFF040000221021024801F07E
:10108000D3FC200010BDC0460004005070B50D0018
:101090001400002801D0FFF767FF0826E009013E91
:1010A0006400FFF7B1FFE4B2002EF7D1FFF7CEFFE7
:1010B0000400002D01D0FFF783FF200070BD70B544
:1010C0000C001600002102000120FFF7DFFF0025C1
:1010D000731E9D4208DBA419013C012122780020E7
:1010E000FFF7D4FF012070BD0021625D08000135CB
:1010F000FFF7CCFFEDB2EBE7F7B501230192020059
:101100000F00180000211A43FFF7C0FF0025019BC4
:10111000591E8D4213DB082500247F18FFF796FF28
:101120006400013D0443EDB2E4B2002DF6D101208C
:10113000FFF76AFFFFF744FF01203C70FEBD082661
:1011400000247B190093FFF781FF6400013E0443F4
:10115000F6B2E4B2002EF6D13000FFF755FF009B47
:1011600001351C70EDB2D2E703689A69920701D588
:1011700000229A6201229969114202D199690A43B7
:101180009A61704730B5039C1204006822431A43E9
:10119000054B45688905640D890D1C43A5430A4329
:1011A0002A43426030BDC046FF63FF0310B5436B66
:1011B000144C0AB2A34202D0134CA3420ED1002A0F
:1011C0000ADB9023102917D0303B202914D00023AC
:1011D000402911D10B430FE0B823F9E700239A42CD
:1011E00000DAB833CA0701D5F22213438A0701D5C2
:1011F000F42213432029EDD001680A6813430B60E1
:1012000010BDC0468D1D0008811C0008002310B5CC
:10121000CA0708D5030041331A7828231A401A3325
:10122000282A00D0B0338A0708D50200282441328A
:1012300012782240A2420BD14422134309B2002962
:1012400001DAB822134301680A689A430A6010BDA4
:10125000F422F2E7F8B5036816009A690400102337
:1012600010000D00202718401A4218D1F8BD6A1C42
:1012700016D000F0EDFE801BA84201D8002D0ED143
:101280002022636C13436364230041331A702200ED
:10129000002342324034137001202370E6E72368B4
:1012A0009A693A42E3D010222000DA61DF61FFF749
:1012B0005BFF2268054953680B4053600423626C4E
:1012C00013436364230041331F70E0E700E800FE2E
:1012D000F8B504000D001600202723689B693B42E7
:1012E00001D00020F8BD320029002000FFF7B2FF36
:1012F000002813D100F0ACFE801BA84201D8002DBD
:10130000EBD12022636C13436364230041331A70D2
:101310002200002342324034137023700120E1E7A1
:10132000F8B504000E0017001D00226893693340D1
:101330009B1B59424B41BB4201D0002017E06B1C64
:10134000F4D000F085FE069BC01AA84201D8002DFB
:10135000EBD12022636C01201343636423004133EB
:101360001A70220000234232403413702370F8BDFB
:10137000F8B504000D001600022723689B693B4264
:1013800001D00020F8BD320029002000FFF762FFE5
:10139000002815D16B1CF0D000F05AFE801BA8422B
:1013A00001D8002DE9D12022636C1343636423002C
:1013B00041331A70220000234232403413702370EC
:1013C0000120DFE770B504000120002C3FD025008C
:1013D00041352B78DAB2002B05D1230040332000B1
:1013E0001A70FFF7BBFA242301212B702368E068F1
:1013F0001A68A6688A431A6061681A4A0A401A6124
:101400009968194A11409960012821D18021090267
:10141000314399605868154901435960D9680020E3
:101420000A40DA60616922690A43A16909020A4334
:10143000DA60216AE2690A431A60012219680A43E4
:101440001A60202360642B7020634234207070BDCA
:1014500084210902314399600228DBD180210901EE
:101460005960D7E7FFFFFFF0FF7FFFFF008000021A
:10147000F0B51D00030087B04133049103931B783E
:101480001600DAB2040005920220202B07D10029B1
:1014900001D0002E05D180239B006364012007B09A
:1014A000F0BD230040331A780220012AF7D0012230
:1014B0001A7000F0CDFD2123039A0700137023005A
:1014C000059A42331A7000222168049B6264668583
:1014D00063623A484B68626303404B6020002B0014
:1014E00008210097FFF71CFF2368021E05D0802209
:1014F000596812020A435A60D0E70826DE61E368A1
:10150000022B09D12B00310020000097FFF708FFC4
:1015100023680028EBD1DE6180212B00002220000F
:1015200000974902FFF7FCFE002814D022688023B0
:1015300051681B020B435360B0E7FFF719FF2268A5
:101540000028F4D1636A1978013391626362638D74
:10155000013B9BB26385638D3A00290020009EB257
:10156000002BEAD1FFF7B4FE236800280AD08022BE
:10157000596812020A435A60626C0120042A00D0A2
:101580008DE76664802620223602DA6131002B0066
:101590001F3A20000097FFF7C3FE23685A681643DE
:1015A0005E60002800D079E72022039B1A70230098
:1015B000403442331870207071E7C046FF7FFFFF50
:1015C000F8B5030041331D780224EEB2202D1AD164
:1015D000050040352F78012F15D020341C700024D1
:1015E0005E70066844647368084F3B4073604285D0
:1015F000438D41620385064B0649C362064B436334
:101600002C70FFF7D3FD2000F8BDC046FF7FFFFF21
:101610000000FFFF028000006D1A0008036810B58B
:1016200099691A68436B002B00D0984710BD70472A
:101630007047030070B500252022060042331D705C
:10164000013B1978040040361A7021290AD1112370
:10165000456303632039FFF7D9FD20003570FFF79C
:10166000E6FF70BD1223456303630221FFF7CEFD41
:1016700020003570FFF7DCFFF3E70000010003688E
:1016800010B5040000201A6842310870012150048E
:1016900018D51A6818490A401A60230041331A788D
:1016A000292A15D1013A1A70212320002363012130
:1016B000FFF7ACFD23000022403320001A70FFF733
:1016C0008BF910BDD20B0A42E7D01A680B49E2E74A
:1016D0001A782A2AF5D1023A1A70222320002363AD
:1016E0000221FFF793FD23000022403320001A70EF
:1016F000FFF780F9E5E7C046FFBFFFFFFF7FFFFF71
:1017000070470300F7B5282241331B7804000168B5
:10171000134093423CD1FE278D698E698B68CA685D
:10172000ED030192C268360CED0F3E40022A25D12E
:101730009B059A0D5B0F5E403000062318401E4249
:1017400010D1A36C0133A364A36C022B09D106331F
:10175000A064CB6123004033187029002000FFF7FC
:10176000CFFFF7BD802120000902FFF74FFD2300C6
:10177000002240331A70019A3A40EEE780210902B4
:10178000FFF744FD2300002240331A703200E4E7E3
:101790000823CB61002340342370E2E77047000048
:1017A000184B10B5C362002302000363040020201D
:1017B00041321070537063634B0713D52368626A1C
:1017C0005B6A1370636A01336362238D002B09D057
:1017D000013B2385638D013B9BB263850423626CCF
:1017E0001343636420000849FFF710FD10222368AB
:1017F0002000DA612300002240331A70FFF7CEFF89
:1018000010BDC0460000FFFF038000007047704716
:10181000704770470100020010B541310C78002379
:101820004032602C06D1403C0C7003631370FFF70C
:10183000F0FF10BD03631370FFF7EAFFF9E7000044
:1018400070B50200050004000020423241352B78BB
:101850001070324A283BE2626085626C0A4362641F
:10186000022B2BD803212000FFF7D0FC28232B705C
:101870002B4BA06B6363236B00282ED01A00102122
:10188000113A8A4329D123681A68520403D51A6889
:1018900024490A401A6001F0F2F8012819D0A06B1F
:1018A000214B00228363230040331A7001F0C2F8F9
:1018B000002811D0A06B836B98470DE020001B49D6
:1018C000FFF7A4FC2B78602B01D020232B70002382
:1018D000CFE72000FFF79EFF70BDE06B0028F8D037
:1018E0001022123B9343F4D123681A68120403D5E3
:1018F0001A680F490A401A6001F0C1F80128E8D0BF
:10190000E06B094B00228363230040331A7001F01F
:1019100091F80028E0D0E06BCDE7C0460000FFFF63
:101920006D1A0008FFBFFFFF0F1F000803800000B3
:10193000FF7FFFFFF7B5036806001A684136019282
:1019400020223578DA61082304000F009D43212D01
:1019500050D140492000FFF759FC256380222368BD
:101960001202596820000A435A605A683A490A40EC
:101970005A60FFF7F9FB019B01225B043ED5226808
:10198000364913680B401360A36B002B03D01B6810
:101990005B689BB263857B0711D504239F43236853
:1019A000626A5B6A1370636A01336362238D002B82
:1019B00005D0013B2385638D013B9BB26385638D1D
:1019C000002B03D00423626C1343636423000022C2
:1019D00042331A70656C626395421AD02000616CC4
:1019E000FFF72EFF3378282B03D139002000FFF7B3
:1019F000D7FEF7BD222DB1D11949ABE7019BDB0B17
:101A00001342C8D02268174913680B401360E36B78
:101A1000BBE72700E36A144A403793420CD020000A
:101A2000FFF72CFE2023104A2000E262337025636A
:101A30003D70FFF7B3FEDCE72023327820003370DF
:101A400025633D70222A02D1FEF7D4FFD1E7FEF7CD
:101A5000C3FFCEE70180000000E800FEFFBFFFFFEC
:101A600002800000FF7FFFFF0000FFFF0300F7B5CB
:101A7000403301931B780400C76A0E001500022052
:101A8000012B24D00123019A13704A091A4205D070
:101A90006A091A4202D02000FFF74CFF0123F20628
:101AA00035D52A091A4232D0638D002B20D123006C
:101AB00041331A78282A0BD180229204974207D109
:101AC00031002000FFF76CFE0020019B1870FEBD66
:101AD000102219782368DA612929F5D12D498F421E
:101AE000F2D02000FFF740FB2000FFF7C7FDEBE737
:101AF00010222368DA610423626C13436364264B6B
:101B00001F42E1D12000616CFFF79AFEDCE7012360
:101B100072071AD5AA081A4217D0638D002B0DD070
:101B20002368626A5B6A1370636A01336362238DA0
:101B3000013B2385638D013B9BB26385638D002B45
:101B4000C2D1144B9F42BFD0CEE70123320706D546
:101B5000EA081A4203D02000FFF7D3FDB4E70123BF
:101B6000B207B1D5DD401D42AED0638D002B0DD044
:101B7000636A22681978013391626362638D013B65
:101B80009BB26385238D013B23859DE7024B1F425A
:101B9000AAD099E70000FFFFFFFFFFFE73B52022E8
:101BA000050003684135DA612B7804000E00212B13
:101BB0002CD10121FFF72AFB1123236323682E492F
:101BC0005A680A405A60002262632C4AE262F206B6
:101BD00005D51022DA61616C0C3A0A4362642A78F6
:101BE000602A05D1720703D55B6ADBB20193019BC2
:101BF0002000FFF7B9FA636C2A78602A01D0002B25
:101C00000CD02000616CFFF71BFE73BD2B78222BDC
:101C1000D4D10221FFF7FAFA1223CEE72A78212A3B
:101C200013D1013A2A702200210023634232107836
:101C3000403113700B70402803D12000FFF7E6FD00
:101C4000E3E72000FFF7F3FCDFE72A78222ADCD164
:101C5000023A2A7022002100236342321078403178
:101C600013700B70402803D12000FFF7D0FDCCE7A4
:101C70002000FFF7DDFCC8E700E800FE0000FFFFE2
:101C80000300F7B5403301931B780400C76A0E00C8
:101C900015000220012B3CD00123019A13704A0940
:101CA0001A4205D06A091A4202D02000FFF742FE0C
:101CB0000120F3065BD52B09034258D0AA0B130071
:101CC000ED0B2B4303424ED0E36B191E06D00021CF
:101CD000054203D01B6859684B4259412300A06B51
:101CE0004133002805D0D20703D502685268002A84
:101CF00001D001291ED11A78282A0BD18022920402
:101D0000974207D131002000FFF74AFD0020019BD8
:101D10001870FEBD102219782368DA612929F5D1DF
:101D200018498F42F2D02000FFF71EFA2000FFF77B
:101D3000A5FCEBE710212268D1610422616C0A4303
:101D400062641B78104ADBB21742DFD1082293434A
:101D5000212B01D1236301E0222BFBD02000616CF9
:101D6000FFF76EFDD2E710222368DA61CEE7012388
:101D70003207CBD5ED081D42C8D02000FFF7C1FCCB
:101D8000C4E7C0460000FFFFFFFFFFFE37B50500B8
:101D900040352B7804000220012B17D001230809BD
:101DA0002B70184213D01009184210D0102223684B
:101DB0002000DA610423626C202113436364FFF77F
:101DC000F5F92000FFF7D0F9002028703EBD01236F
:101DD000080646D59009184243D0402123681A6866
:101DE0008A431A60628D002A2FD05968638D890555
:101DF000890DFF2B1BD9FF23238580235B04002043
:101E0000228D0090D2B22000FFF7BCF9638D228DA5
:101E10009B1A9BB26385230041331A7823681968A3
:101E2000222A0FD1802212020A431A60CCE7638D66
:101E3000E26A23851C4B9A4201D0E36ADFE78023E4
:101E40009B04DCE78022D201EEE75B689B0103D4B0
:101E50002000FFF7EEFBB7E740212000FFF7F0FC82
:101E6000B2E70123480613D59009184210D0638DBC
:101E7000002BF1D123685A689201A5D4E16A0A4A7D
:101E80009142E5D180225968D2010A435A609BE70A
:101E90000123880600D497E752091A4200D193E73C
:101EA0002000FFF77BFE8FE70000FFFF036870B59F
:101EB0009C6901211A68E50508D5D5090D4205D0B0
:101EC000456C2943416480214900D96101216505A0
:101ED00009D5D5090D4206D0456C07312943416427
:101EE0008021C900D9610121A40509D5D2090A427E
:101EF00006D00222416C0A43426480229200DA61D9
:101F00000B23416C194201D0FFF79AFC70BD806A27
:101F100010B5836B002B01D000229A63C36B002B9A
:101F200001D000229A63FFF775FC10BD41300078A4
:101F3000C0B27047F0B504004134227803000F00AE
:101F40000220D6B2202A18D11D0040352A78012A55
:101F500013D0242222701B68233A19680748914342
:101F60001960196801400020196019683943196027
:101F700019680A431A6026702870F0BDFFEFFFFF52
:101F80000200F0B5413214780300E5B20220202CA3
:101F900017D11C0040342678012E12D02230107048
:101FA0001B6823381E68074F86431E601E6809029F
:101FB0003E403143196019680843186000201570CD
:101FC0002070F0BDFFF0FFFF70B50500FA200D4B4B
:101FD00080001978FEF7ACF80B4B01001868FEF78B
:101FE000A7F800F085FD04000120002C09D1032D85
:101FF00007D802382200290000F046FD2000034BDC
:102000001D6070BD100000200C0000201400002096
:102010004023084A10B5116800200B431360FFF7F6
:10202000D3FF041E03D1FEF787FE200010BD01245C
:10203000FBE7C04600200240034A044B11681B78AE
:102040005B1813607047C04610020020100000208B
:10205000014B18687047C0461002002070B504009C
:10206000FFF7F6FF0500631C02D0044B1B78E41851
:10207000FFF7EEFF401BA042FAD370BD1000002016
:102080000C22194B10B5D9680A40082A29D00C2A0D
:1020900009D0042A1DD11868144BC006C017184077
:1020A000134BC01810BD13488A02120F825C09023C
:1020B000D868890F0131C00304D50F485043FEF79B
:1020C00037F8EFE71B68DB0601D50C48F6E7084850
:1020D000F4E780205B6800021B045B0F013398402B
:1020E000E0E70548DEE7C0460010024000E548FF93
:1020F0000024F4006D3E000800127A0000093D0043
:10210000F0B5050087B0002854D00C23C04C0268FD
:10211000E668E7681E4080235B021F40D2073DD47B
:102120002B689B0700D586E02B68DB0628D5002EA0
:1021300000D0DEE023689B0502D5AB69002B39D0C7
:102140006268B4492B6A0A401A4362606168EA69AE
:102150000902090A12060A43626080225B0B0133FE
:1021600012029A401300E16800200A06AA49120FE1
:102170008A5CD340A94A1360FFF726FF002830D1BC
:102180002B681B0700D5EBE02B685B0700D50DE142
:102190006B6A002B00D092E1002022E0082E03D0D1
:1021A0000C2E09D1002F07D023689B03B8D56B688C
:1021B000002BB5D1012014E06A689A4213D122683D
:1021C00013432360FFF744FF0190802223689202AB
:1021D0001342A5D1FFF73CFF019BC01A6428F4D934
:1021E000032007B0F0BDA021C9028A4205D1802298
:1021F0002168D2020A432260E1E721688848014051
:10220000216021680B400593059B864923680B409C
:102210002360002AD6D1FFF71BFF0190802223689C
:102220009202134200D17BE7FFF712FF019BC01A15
:102230006428F3D9D4E72022EB68134203D0216845
:10224000934311432160042E03D00C2E23D1002F81
:1022500021D12268520701D5002BABD061682A69D1
:102260007148120201400A430921626022688A43D0
:1022700013432360FFF704FFE368674A1B061B0F45
:10228000D35CD840654B18600020FFF79DFE002806
:1022900000D149E7A5E7002B19D0092122688A431C
:1022A00013432360FFF7D4FE070004222368134280
:1022B00007D062682B695C491B020A4013436360C4
:1022C00032E7FFF7C5FEC01B0228EED988E70122DE
:1022D000236893432360FFF7BBFE070004222368B3
:1022E000134200D120E7FFF7B3FEC01B0228F5D947
:1022F00076E7AB69002B20D0802322685B00134374
:102300002360FFF7A5FE0700802223689200134296
:102310000DD063683F4A13402A6A134363606268C2
:10232000EB6912021B06120A1343636028E7FFF7EA
:102330008FFEC01B0228E7D952E723683B4A1340AF
:102340002360FFF785FE0700802223689200134276
:1023500000D115E7FFF77CFEC01B0228F4D93FE748
:102360006A690123002A10D0226D13432365FFF709
:102370006FFE07000222236D134200D004E7FFF72F
:1023800067FEC01B0228F5D92AE7226D9A43226511
:10239000FFF75EFE07000222236D134200D1F3E631
:1023A000FFF756FEC01B0228F5D919E7802300214C
:1023B000A26B5B0501911A4204D1A26B1343A36384
:1023C0000123019380221A4F52003B68134208D028
:1023D0008022AB68520093422CD1226D13432365B7
:1023E0004DE080223B68520013433B60FFF730FE14
:1023F00080235B00029003933B68039A1342E7D16A
:10240000FFF726FE029BC01A6428F5D9E8E6C0460D
:1024100000100240FF1FFFFF553E00080C00002087
:10242000FFFFFEFFFFFFFBFFFFE0FFFFFFFEFFFFE1
:1024300000700040002B16D1236D514A13402365D4
:10244000236D504A13402365FFF702FE07008022E8
:10245000236D920013421AD0FFF7FAFD4A4BC01BBE
:102460009842F4D9BCE6A021C9008B4218D1802340
:10247000216DDB000B432365236D1A432265FFF7B3
:10248000E7FD07008022236D9200134210D0019BCC
:10249000012B00D07CE6A36B3C4A1340A36377E694
:1024A000236D374A13402365236D364A134096E760
:1024B000FFF7CEFD344BC01B9842E3D990E60C2EBB
:1024C00043D0334A022B2ED1236880271340236048
:1024D000FFF7BEFD0600BF0423683B421DD1E96A39
:1024E000AB6AE2680B432B4980260A4013432A6BF0
:1024F000B6041343E360802322685B041343236024
:10250000FFF7A6FD05002368334200D044E6FFF73D
:102510009FFD401B0228F6D962E6FFF799FD801B5C
:102520000228D9D95CE62368802613402360FFF790
:102530008FFD0500B6042368334200D12CE6FFF777
:1025400087FD401B0228F6D94AE61800012B00D16E
:1025500047E68022E368A96A52021A408A4200D004
:1025600028E6F022E96A92031A408A4200D021E666
:10257000C022120413402A6B934200D10CE619E6E4
:10258000FFFEFFFFFFFBFFFF88130000FFFFFFEFD1
:10259000FFFFFFFEFFFF02FFF7B5041E019101D10F
:1025A0000120FEBD0122514D01992B6813408B4241
:1025B00027D3226893072FD4D30735D401232A6861
:1025C00001991A408A4200D981E02268484D530798
:1025D00000D584E0130706D5EA6823694549DB0086
:1025E0000A401343EB60FFF74BFDEB68424A1B06C2
:1025F0001B0FD35CD840414B18600020FFF7E4FC70
:10260000CFE72B68019993430B432B602B68134052
:10261000019A9342C4D1CCE7F0203549CB6883437B
:10262000A0680343CB60C7E7314E62683368022A73
:1026300019D19B03B4D50321F3688B431343F36093
:10264000FFF706FD63680700022B19D10C22F3681F
:102650001340082BB2D0FFF7FBFC294BC01B98425C
:10266000F4D903209DE7032A02D19B01E3D497E725
:10267000012A02D15B07DED492E79B05DBD48FE70A
:10268000032B0BD10C22F3681340934296D0FFF733
:10269000DFFC1B4BC01B9842F4D9E2E7012B10D0A2
:1026A0000C22F368134289D0FFF7D2FC144BC01BF5
:1026B0009842F5D9D5E7FFF7CBFC114BC01B9842E8
:1026C000CFD80C22F3681340042BF4D176E72A68A4
:1026D0009A432A602A681A4200D176E760E7EB68DD
:1026E00008490B40E1680B43EB6073E700200240B0
:1026F00000100240FFC7FFFF553E00080C000020FD
:1027000088130000FFF8FFFF014B18687047C046B0
:102710000C000020044B054ADB685B055B0FD35CB3
:10272000034A1068D840704700100240653E000818
:102730000C000020044B054ADB689B045B0FD35C54
:10274000034A1068D840704700100240653E0008F8
:102750000C0000200368F7B505009B063DD58023DB
:102760000021504C5B05A26B00911A4204D1A26B70
:102770001343A3630123009380274B4E7F003368EC
:102780003B4251D06B68C022C0201E0021689202DB
:10279000800317001640034001408B4255D1236D42
:1027A0001A003A403B4257D16968C0230A009B0295
:1027B0001A409A4207D123683C480340C020800356
:1027C00001400B432360236D1A43009B2265012BBC
:1027D00003D1A36B364A1340A3632A68930706D537
:1027E0000C203049CB6C8343A8680343CB64530768
:1027F00006D52C492F48CB6C0340E8680343CB64D3
:10280000130706D527492C48CB6C0340286903439E
:10281000CB640020130617D5224A2849D36C0B40FD
:1028200069690B43D3640FE033683B433360FFF7C0
:102830000FFC019033683B42A4D1FFF709FC019BD8
:10284000C01A6428F6D90320FEBD9642A7D123689A
:1028500001209B03A3D5F7E7B242A5D02B689B06C6
:10286000A2D58022216D206D120302432265226DC4
:10287000134B14480B40024022652365CB0500D45E
:1028800092E7FFF7E5FB80270600BF00236D3B4280
:1028900000D089E7FFF7DCFB0B4B801B9842F5D992
:1028A000D1E7C0460010024000700040FFFFCFFF9C
:1028B000FFFFFFEFFFF3FFFFFFCFFFFFFFFFF3FF80
:1028C000FFFFFCFFFFFFF7FF881300000023F0B5B8
:1028D00085B00A681400DC4001D105B0F0BD0124C8
:1028E00015009C4025400295224200D189E0102528
:1028F0004A685E000192AA430D3DB5409446013AF4
:10290000ED43012A0FD8CA688768B2402F403A4386
:10291000012782604268A2431400019A12093A40DA
:102920009A40224342608A68C468B2402C402243E5
:10293000C2606246022A0FD1DA0807249200821888
:10294000176A03920F221C40A400A24097430A6911
:10295000A2401743039A1762032402681540019AA4
:102960002240B24080241543019A6405056022424A
:1029700047D001250F27244C626B2A4302351D40A6
:10298000AD00AF406263214A9C08A400A418A66869
:102990000022BE43A027FF05B84208D01C4F0132D9
:1029A000B84204D01B4F0132B84200D00432AA40D2
:1029B0003243A260184A029C1668029D019FE443BC
:1029C0003543FF0301D43500254015605668029D4C
:1029D000019F3543BF0301D43500254055609668FB
:1029E000029D019F3543FF0201D4350025409560CB
:1029F000D568029E019F2E43BF0201D425402E00C0
:102A0000D660013365E7C046001002400000014077
:102A10000004005000080050000401400069084014
:102A2000411E8841C0B27047002A01D081617047C1
:102A30008162FCE770B5841DE37F022B04D0042380
:102A4000C363033B180070BD0E210368456C1A6810
:102A50008A431A6001221968914319601C232B4094
:102A600015009D40016C431D4D60E2770024DC772A
:102A7000826B1300A242E5D090472300E2E70630C4
:102A8000C07FC0B27047000030B5FF2503242A0084
:102A90000440E400A24089012940D243A140C3B2CE
:102AA00000280BDA0F200340083B0A489B089B00D4
:102AB0001B18D86902401143D96130BD064B80080C
:102AC0008000C018C0239B00C45822401143C1504D
:102AD000F3E7C04600ED00E000E100E01F231840EE
:102AE0001E3B8340014A13607047C04600E100E08E
:102AF0008022431E5204012093420DD2C021074A76
:102B000007485360036A09061B021B0A0B43036252
:102B100000200723906013607047C04610E000E07B
:102B200000ED00E01F23C02218401E3B83400249F5
:102B300052008B507047C04600E100E0802210B583
:102B40000368D205904202D00D4CA0420CD17024F3
:102B5000A3434C682343904202D0094A904203D1D8
:102B6000084A1340CA681343802293430A691343F7
:102B700003608B68C3620B6883620123436110BDED
:102B800000080140FFFCFFFF012230B57325036AF6
:102B900093430362036A44688269AA430D682A4327
:102BA0000225AB438D68446082614A682B434263CF
:102BB000036230BD1022036A30B593430362036A97
:102BC000094C4568826914400A6812022243202495
:102BD000A3431C008B6845601B0182614A68234344
:102BE0008263036230BDC046FF8CFFFF1F2310B518
:102BF000012419408C408A40036AA3430362036A9C
:102C00001A43026210BD70B504000120002C14D0DC
:102C1000250039352B78DAB2002B05D12300383363
:102C200020001A70FDF75AFF02232B702068211D27
:102C3000FFF784FF012300202B7070BD01000223E9
:102C400039310B70036807209A680240062A03D0C6
:102C50000122186802431A60012300200B7070479C
:102C6000704770B504000120002C14D025003935C0
:102C70002B78DAB2002B05D12300383320001A70EC
:102C8000FFF7EEFF02232B702068211DFFF756FF90
:102C9000012300202B7070BD10B5040001220068D4
:102CA000FFF7A4FF072123689A680A40062A03D089
:102CB000012219680A431A60002010BDF8B504000B
:102CC00002263834257803003000012D0FD01D0076
:102CD0000138393520702E70082A2AD008D8002AE9
:102CE0001FD0042A21D0012300202B702070F8BDB2
:102CF0000C2AF8D11B681A481A6A1A4E02401A6246
:102D00001A6A5F68D86930400E6836023043164E42
:102D100016408A68496812035F603243D8611964BB
:102D20001CE01868FFF730FFDDE71868FFF742FF87
:102D3000D9E773261B680D481A6A02401A621A6A9C
:102D40005F68D869B0430E683043094E16408A6800
:102D5000496812025F603243D861D9631A62C2E7E0
:102D6000FFEFFFFFFF8CFFFFFFDFFFFFFFFEFFFF17
:102D7000FFFDFFFFF0B50400022238342578030080
:102D80001000012D24D01D000126393526702A702F
:102D90001B6845489A6802409A600A68602A55D0C4
:102DA0002FD8402A00D169E013D8202A04D009D8AE
:102DB00010211000884307D17020996881430A438D
:102DC000072140E0302AF7D0012300202B7020702B
:102DD000F0BD502AF8D14868CA68196A1F6A120102
:102DE000B7431F62F0279E69BE4332430A26B143B0
:102DF00001439A61196270219A688A43110057222F
:102E000021E0702A12D0802080018242DCD19A68B1
:102E100026484E6810408A68C968324309020A434E
:102E200002439A6080229968D2010CE09A681F4898
:102E30004E6810408A68C968324309020A43024357
:102E40009A60772299680A439A60BDE71026186A4B
:102E50004A68B043C96818629E69154F09033E402D
:102E60003143A026186A99617021B04312010243D0
:102E70001A629A688A4311006722E4E74868CA68C0
:102E8000196A1F6A1201B7431F62F0279E69BE4389
:102E900032430A26B14301439A61196270219A684C
:102EA0008A4311004722CEE78800FFFFFF00FFFFA3
:102EB000FF0FFFFF70B504000222383425780300AD
:102EC0001000012D13D018007026393002701D68D3
:102ED0006A68AB68B2430E68496832438026B343E0
:102EE0000B436A60AB60012303700020207070BD4B
:102EF000F8B505002C69AA68036822436C69C169AA
:102F0000224318687E4C0A43204002431A605A68E4
:102F10007C487D4C0240E86802435A60A869A3429D
:102F200001D02A6A10439A68784E324002439A6070
:102F3000774A934215D10C20764BDA6C02407648E2
:102F4000845C80221202914200D095E0082C00D9C6
:102F50008FE02000FDF7E2F8526B738D858D8D8D2B
:102F60008800A34200D0C4E0C0218020694A090142
:102F7000D36C00010B40834217D007D8002B0AD036
:102F80008022D200934236D0012409E08B42FBD14B
:102F90008020000213E0FFF7BDFB0024A0420ED109
:102FA000002320002B666B66F8BD102310681840C4
:102FB00043425841594B40421840594BC0180323D3
:102FC0006A6853438342DFD813038342DCD300276C
:102FD0005608040E03029B197C41180021003B0097
:102FE000FDF732F94F4BC2184F4B9A42CCD82B68A1
:102FF0003C00D860D4E7FFF743F8CEE7FFF78AFB41
:103000006B6840005B086968C018FDF791F880B2F2
:103010000300464A103B9342B6D80F2302009A435E
:10302000130000072A68400F1843D060B8E7FFF785
:1030300081FB6B6840005B086968C01809E01A688A
:103040001023140069681C4048081A4206D0384B07
:10305000C018FDF76DF8002480B2D9E7354BC018D1
:10306000D3E7FFF70DF8E4E76B68580880235B02AD
:10307000E2E701240020CBE7082C3ED82000FDF732
:103080004DF8050F163C303C3C3C3300FFF742FB4B
:103090006B6869685B081818FDF74AF880B214E09D
:1030A000FFF748FB6B685B086968C01809E01A689D
:1030B0001023140069681C4048081A420ED0184BAF
:1030C000C018FDF735F8002480B20300174A103B02
:1030D000934200D958E72B68D86061E7164BC018B7
:1030E000DAE7FEF7CDFFDDE76B68580880231B02A7
:1030F000DAE780231B029942BBD001240020E4E7D9
:10310000F369FFEFFFCFFFFF00480040FFF4FFFF30
:103110000044004000100240763E0008001BB7004B
:1031200000093D0000FDFFFFFFFC0F00EFFF000066
:1031300000127A000048E8010024F400436A30B528
:10314000DA0706D50168284C4A682240846A22437F
:103150004A609A0706D50168244C4A682240C46A2E
:1031600022434A605A0706D50168214C4A6822402A
:10317000046B22434A601A0706D501681D4C4A6851
:103180002240446B22434A60DA0606D501681A4C95
:103190008A682240846B22438A609A0606D50168B9
:1031A000164C8A682240C46B22438A605A0610D5A6
:1031B0000168134D4A68046C2A4022434A60802209
:1031C0005203944205D14A680E4C2240446C22437B
:1031D0004A601B0606D502680B4953680B40816C98
:1031E0000B43536030BDC046FFFFFDFFFFFFFEFFF6
:1031F000FFFFFBFFFF7FFFFFFFEFFFFFFFDFFFFF93
:10320000FFFFEFFFFFFF9FFFFFFFF7FFF8B5040091
:103210000D0017001E002268D3692B405B1B59422A
:103220004B41BB4201D000201BE0069B0133F3D091
:10323000FEF70EFF069B801B984201D8002BEAD1B7
:10324000236808491A6803200A401A609A68A33163
:10325000FF318A439A6020236367A3670023703499
:103260002370F8BD5FFEFFFFF0B585B00393436F99
:1032700004000D0016000220202B4DD1013800293A
:103280004AD0002A48D08023A2685B019A4204D128
:103290002369002B01D101423ED1230070331A78FB
:1032A0000220012A38D001221A700023E36721335B
:1032B0006367FEF7CDFE230050331E8002331E806D
:1032C00002938023A268070000265B019A4204D182
:1032D0002369B34201D12E001D00230052331B8805
:1032E0009AB2002B0DD1039B4021009320003B009C
:1032F000FFF78CFF00280ED120237034636020700C
:103300000AE0039B0022009380213B002000FFF78E
:103310007DFF002802D0032005B0F0BD2268002DFB
:103320000BD133880236DB05DB0D9362029B029AD8
:103330001B88013B9BB21380CFE72B78013593624A
:10334000F4E7000073B500260400C667FEF780FEB0
:10335000236805001B681B0715D423681B685B07DF
:103360000AD580210E4B0022009320002B00C903B8
:10337000FFF74CFF002811D1202300206367A367CB
:10338000703420700BE08021054B320000938903DC
:1033900003002000FFF73AFF0028DED0032076BDAF
:1033A000FFFFFF0110B5041E01D1012010BD436FC6
:1033B000002B04D1020070321370FDF741FC24236E
:1033C000012122686367136820008B431360FFF7B5
:1033D0008FFD0128E9D0636A002B02D02000FFF79F
:1033E000ADFE236807495A6820000A402A215A6026
:1033F0009A688A439A60012219680A431A60FFF7A3
:10340000A1FFD3E7FFB7FFFF084B13B5040008493E
:103410001868FCF78DFE44430194019B002B00D1FA
:1034200013BD019B013B0193F7E7C0460C00002050
:1034300040420F000321036870B59A6804000A40F7
:10344000012A04D11968114201D0002070BD996889
:10345000134A114208D010230120626D13436365A3
:10346000A36D0343A365F1E701259A6828002A4369
:103470009A60FFF7C9FFFEF7EBFD060023681B68A3
:103480002B42E2D1FEF7E4FD801B0A28F6D9102377
:10349000626D012013436365A36D1D43A565D5E7E8
:1034A0001700008070B504000120002C1BD0636D54
:1034B000002B06D122005032A36520001370FDF7C7
:1034C000A9FC636DDB0606D4236804229968080012
:1034D0001040114208D01023626D01201343636530
:1034E00000235034237070BD626D55491140022293
:1034F0000A436265032299681140524A012902D1A8
:103500001D680D4219D180266168F6054D006D08D1
:10351000B54203D080252D06A94276D11D69AD00A4
:10352000AD081D611D69294319611825D968A94392
:10353000D960D968A5682943D9601168424D2940EE
:103540001160616B156849062943116080229968F2
:103550005205114202D199680A439A60DA683B49E0
:103560000A402169DA60DD68E268022900D104209E
:10357000266B611C32432A43A569C97FAD032A43E8
:10358000E569ED032A434D032A4325002C352D78A8
:103590006D002A430243C220DA60626AFF30824231
:1035A00004D0A56AD8682A430243DA60A21CD27FFD
:1035B000012A06D1002934D18022D96852020A4357
:1035C000DA60E16B1A69012933D12148656C024048
:1035D0001A61226C18692A43A56C2A4302431A61B6
:1035E0001A691143196107215A6900208A435A61F7
:1035F0005A69A16B0A435A610322A065636D934324
:103600001A000123134363656DE71D69114EAD0078
:10361000AD081D61156835401560156829431160B6
:1036200083E72021606D01436165A16D0A43A265B6
:10363000C7E701210A42D6D01A698A431A61D2E744
:10364000FDFEFFFF08270140FFFFFFFD1902FEFFFF
:1036500003FCFFFFFFFFC3FF036870B59B68040016
:1036600002205B071AD4250050352B78012B15D08A
:1036700001232B70E369012B11D1636D0B4A0020EC
:103680001A4080235B0013431C226365A0652870E9
:1036900023681A609968183A0A439A6070BD20003E
:1036A000FFF7C8FE0028E8D0F8E7C046FEF0FFFFAD
:1036B000F8B5466904000D00082E0DD003680120FE
:1036C000DB680C26034207D02023626D503413437D
:1036D000636000232370F8BDFEF7BAFC070023687F
:1036E0001A68164224D08022616D92000A436265F6
:1036F000C022D9681201114213D1621CD27F002A64
:103700000FD11A6812070CD59A68520723D40C21DE
:103710005A688A435A60626D1349114001220A4374
:1037200062650020A2698242D5D10C221A60D2E7DC
:103730006A1CD5D0002D08D10423626D5034134388
:103740006360002303202370C5E7FEF781FCC01BE4
:10375000A842C4D9F0E72022616D0A4362650122C4
:10376000A16D0A43A265DCE7FEFEFFFF0368186C4B
:1037700070470000F8B504005034227803000D00B3
:103780000220012A0BD0013820701A68916849077D
:1037900006D52022596D0A435A6500232370F8BDCF
:1037A00080232868194E6F684103DB02490B0340F0
:1037B000B74219D0906A01439162002B08D0802350
:1037C000134A1B0411680A200B431360FFF71CFE09
:1037D0002B689B0305D580230D4ADB0311680B433F
:1037E000136000202070DAE7956A8D439562002B04
:1037F00004D0074A074913680B4013608303F0D5D0
:10380000034A054913680B40EAE7C046011000006F
:1038100008270140FFFF7FFFFFFFBFFFF8B505004E
:1038200050352B7804000220012B44D001230322C1
:103830002B70236898681040012809D11A68024249
:1038400006D02023626D1343636500232B7032E0A2
:10385000626D1949114002220A4303216265DE6844
:10386000DA688A43DA608022996812060A439A600D
:10387000FEF7EEFB070023689A68002A0CDB0322A0
:10388000D96816400E43DE60636D002093431A0032
:10389000012313436365D8E7FEF7DAFBC01B0A2850
:1038A000E9D91222636D012093431A0010231343B8
:1038B000636500232B70F8BDFDFEFFFF0CB4F0B56F
:1038C00087B00CAE08CE1A4D03931A4B1A4A5B5CB4
:1038D00000903F21280000F0E1F9C3430400DB170A
:1038E000FF271C4040232740039AD91BE8193300C7
:1038F000059600F0B9F9C2B20300101E13D0FF21E3
:103900000B40DB19BF393F2B01DC1419E1B20D2349
:103910000A226B544B1C02312800DBB2C9B2EA54B4
:10392000FDF7CEF9012007B0F0BC08BC02B0184783
:103930006A0000208C3E0008833E0008F0B50500B8
:103940000E0001240B6985B0CF6801932100280087
:10395000FCF7EEFBB84206D20027002C05D1019BF4
:103960001C7005B0F0BD7C43F0E728002100FCF797
:1039700065FCF3680D000290190020000393FCF72A
:10398000D7FB002F07D1029B002B04DC039BA34233
:1039900014D80400E1E7029A3023092A05DD042146
:1039A000327807330A4200D12033029A01379B183C
:1039B000019A1370130001330193EAE73023F4E70F
:1039C000F7B5060015005468136901911B1962428E
:1039D0009A5C002A01D0002C38DC2B7A5A1E9341C5
:1039E0002A78E41A930703D5EB68102B30D1023CF8
:1039F000092327001A4235D0297A002902D0300045
:103A0000019B98472B789B070ED5EB68102B31D183
:103A10003021019B300098472B7858215B0700D458
:103A200020313000019B98472B782700DB072AD4F0
:103A30002F6901377B1E197800292CD109222B7898
:103A40001340082B01D1002C29DCF7BD013CBEE757
:103A5000083B59424B41E41ACAE720213000019B40
:103A60009847013F002FF8DCE343DB17621E1C4040
:103A7000141BC1E7082BD7D13021D2E73021300009
:103A8000019B9847013F002FF8DCE343DB17621EE0
:103A90001C40141BCCE73000019B9847C9E720214C
:103AA0003000019B9847013CCDE783680268934250
:103AB00001D24268D1548368013383607047F0B506
:103AC00005000E008BB01C0002AB09931178531C4B
:103AD0000093002901D10BB0F0BD252902D02800A8
:103AE000B04775E000230B2005AA117806938143A7
:103AF000180011700099137201934A1C09789446BA
:103B00000092002904D1002810D005AF3A780AE0CD
:103B10002D2921D0302922D0232923D0002805D0D7
:103B200005AF38780200082010433870019A002A47
:103B300004D0012705AA107838431070002B04D058
:103B4000022305AA1078034313700B00303B092BA6
:103B500023D800220A200DE001206146CDE7012292
:103B60000192FAE70123F8E742439A18634619786D
:103B700001239C44634600930B00303BDFB2092FC6
:103B8000F2D9313B052B03D80A330A2BECD003E0E2
:103B90000B00413B052BF7D906922E290DD105AA22
:103BA00013782D390B43137063461A0011780133D3
:103BB0000A00303A0093092AF7D969290ED01FD894
:103BC00058292ED006D8002900D184E7252986D08F
:103BD000009A7BE7632939D06429F9D10A2301CC03
:103BE00005AFFB60002802DA233340423B72390004
:103BF000FFF7A4FE3A0031002800FFF7E1FEE7E7F7
:103C000008006F38C3B2092BE2D80928E0D8FCF7C6
:103C10007BFA1BDFDFDF20DF05DFDF080A230893E5
:103C20000CE01023583908934B42594102AA8B00EB
:103C3000117B04229143194302AB197301CC05A9EE
:103C4000FFF77CFE05AAD6E70823E8E702CCC9B255
:103C500045E708CC3100280005AA0993FFF7B0FE1C
:103C600002AB0993B4E700001FB50024A1420ED0B7
:103C700001390290019101A807490394FFF71FFF42
:103C80000399019B029A994204D25454039C200048
:103C900004B010BDD454F9E7AB3A00080CB407B532
:103CA00004AB04CB0193FFF7DFFF03B008BC02B005
:103CB000184710B5029C002801D1002010BD002A31
:103CC000FBD0002BF9D0002CF7D00329F5D90178CF
:103CD000117041781970C17821701278013A032A65
:103CE000EBD8002002221B78013BDBB29A42404114
:103CF000C0B2E3E71348854613480168090E134A2A
:103D0000914205D1124813490160134813490160DB
:103D1000002103E0124B5B58435004311148124B11
:103D200042189A42F6D3114A02E00023136004328B
:103D30000F4B9A42F9D3FDF70DF800F01DF8FCF790
:103D400099FBFEE700080020040000001F000000AF
:103D5000341002400100000000000140000000009B
:103D6000A43E0008000000201800002018000020D9
:103D700014020020FEE7000070B500260C4D0D4C2B
:103D8000641BA410A64209D1002600F02BF80A4DAE
:103D90000A4C641BA410A64205D170BDB300EB58B9
:103DA00098470136EEE7B300EB5898470136F2E743
:103DB0009C3E00089C3E00089C3E0008A03E000877
:103DC000002310B59A4200D110BDCC5CC45401331D
:103DD000F8E703008218934200D17047197001334D
:103DE000F9E70000F8B5C046F8BC08BC9E4670472D
:0C3DF000F8B5C046F8BC08BC9E46704701
:103DFC0000000048656C6C6F20746865726521006A
:103E0C004D41494E0030782530325800537563636C
:103E1C0065737300490054004D0041004400464650
:103E2C0000543A25642E256443202D204D3A20253C
:103E3C0064202D204C3A2025640053454E530054E9
:103E4C00780D0A0052780D0A0000000000000000F6
:103E5C000001020304060708090000000001020328
:103E6C0004030406080C1018203000101010041065
:103E7C00101002101010085B25635D5B25735D004C
:083E8C005444495745464F001C
:083E9400F4C3FF7F01000000F0
:043E9C00E900000831
:043EA000C100000855
:103EA40000010203040506070809000000002000C1
:083EB400010000000400000001
:0400000508003CF5BE
:00000001FF
